:020000040800F2
:10000000080500200101000825010008270100085B
:10001000290100082B0100082D0100080000000044
:100020000000000000000000000000002F01000898
:10003000310100080000000033010008350100080C
:1000400037010008370100083701000837010008B0
:1000500037010008370100083701000837010008A0
:100060003701000837010008370100083701000890
:100070003701000837010008370100083701000880
:100080003701000837010008370100083701000870
:100090003701000837010008370100083701000860
:1000A0003701000837010008370100083701000850
:1000B0003701000837010008370100083701000840
:1000C0003701000837010008370100083701000830
:1000D0003701000837010008370100083701000820
:1000E000370100083701000837010008DFF80CD09D
:1000F00000F02CF800480047910100080805002096
:100100000D488047DFF83400016841F4E0210160C8
:10011000BFF34F8FDFF82800DFF8281001600A488E
:1001200000477047FEE7FEE7FEE7FEE7FEE7FEE773
:10013000FEE7FEE7FEE7FEE72301000824ED00E00E
:100140000CED00E00003FA05ED000008064C074D39
:1001500006E0E06840F0010394E807009847103497
:10016000AC42F6D3FFF7C6FF0C0200082C020008D1
:1001700002E008C8121F08C1002AFAD17047704770
:10018000002001E001C1121F002AFBD170470000CE
:1001900000241EE0204600F027F8104941F8240012
:1001A000084650F824000E490968884204DD0B48CF
:1001B00050F824000A490860084850F8240009490A
:1001C0000968884204DA054850F8240005490860A7
:1001D000641C402CDEDB00BFFEE7000008000020AE
:1001E00000000020040000200649074A31F91030C1
:1001F00032F910C003FB03F30CFB0CFC63441846FC
:10020000FFE77047AC0200082C0200082C0300082E
:1002100000000020080000007001000834030008FE
:10022000080000200005000080010008FF7F627FB9
:100230008A7D7D7A4276E3706E6AF262825A345128
:100240001D47573CFC302825F9188C0C000074F32E
:1002500007E7D8DA04CFA9C3E3B8CCAE7EA50E9DDC
:1002600092951D8FBE89838576829E8000809E80B8
:1002700076828385BE891D8F92950E9D7EA5CCAE1C
:10028000E3B8A9C304CFD8DA07E774F300008C0CF5
:10029000F9182825FC30573C1D473451825AF26228
:1002A0006E6AE37042767D7A8A7D627F00008C0CF4
:1002B000F9182825FC30573C1D473451825AF26208
:1002C0006E6AE37042767D7A8A7D627FFF7F627F0D
:1002D0008A7D7D7A4276E3706E6AF262825A345188
:1002E0001D47573CFC302825F9188C0C000074F38E
:1002F00007E7D8DA04CFA9C3E3B8CCAE7EA50E9D3C
:1003000092951D8FBE89838576829E8000809E8017
:1003100076828385BE891D8F92950E9D7EA5CCAE7B
:10032000E3B8A9C304CFD8DA07E774F300000000EC
:040330006400000065
:04000005080000ED02
:00000001FF
