:020000040800F2
:10000000080500200101000825010008270100085B
:10001000290100082B0100082D0100080000000044
:100020000000000000000000000000002F01000898
:10003000310100080000000033010008350100080C
:1000400037010008370100083701000837010008B0
:1000500037010008370100083701000837010008A0
:100060003701000837010008370100083701000890
:100070003701000837010008370100083701000880
:100080003701000837010008370100083701000870
:100090003701000837010008370100083701000860
:1000A0003701000837010008370100083701000850
:1000B0003701000837010008370100083701000840
:1000C0003701000837010008370100083701000830
:1000D0003701000837010008370100083701000820
:1000E000370100083701000837010008DFF80CD09D
:1000F00000F042F8004800474503000808050020CA
:100100000D488047DFF83400016841F4E0210160C8
:10011000BFF34F8FDFF82800DFF8281001600A488E
:1001200000477047FEE7FEE7FEE7FEE7FEE7FEE773
:10013000FEE7FEE7FEE7FEE72301000824ED00E00E
:100140000CED00E00003FA05ED00000830B50B46A9
:10015000014600202022012409E021FA02F59D42F7
:1001600005D303FA02F5491B04FA02F52844151ECB
:10017000A2F10102F1DC30BD064C074D06E0E0685B
:1001800040F0010394E8070098471034AC42F6D3DE
:10019000FFF7B0FFD4030008F40300080FB4054BC9
:1001A00010B503A9044A029800F018F810BC5DF8D5
:1001B00014FB0000310300080000002002E008C822
:1001C000121F08C1002AFAD170477047002001E0D1
:1001D00001C1121F002AFBD1704700002DE9FF4F1B
:1001E00089B09B460446002506E025280BD05A46D8
:1001F0000B999047641C6D1C20780028F5D10DB038
:100200002846BDE8F08F0027B8460122474900E0A4
:10021000074314F8013F203B02FA03F00842F7D1EC
:1002200020782E2819D114F8010F47F004072A2846
:100230000ED06FF02F022078A0F1300109290CD8E0
:1002400008EB880102EB410100EB0108641CF2E7B6
:100250000A98641C50F8048B0A9020780028CED0AD
:10026000642808D0692806D075281ED05A460B99F4
:1002700090476D1C58E00A994FF00A0901C90A918C
:10028000002802DA40422D2102E0390504D52B2155
:100290008DF82010012103E0F90704D02021F7E7B1
:1002A0008A4608AE0DE00021FAE70A994FF00A09E4
:1002B00001C90A91F7E74946FFF748FF303106F8D0
:1002C000011D0028F7D1ADEB060000F120097807E9
:1002D00001D44FF00108C84502DDA8EB090000E099
:1002E00000208046002706E008A85A46C05D0B990A
:1002F00090476D1C7F1C5745F6DB04E030205A46C2
:100300000B9990476D1CB8F10001A8F10108F5DCCC
:1003100005E016F8010B5A460B9990476D1CB9F190
:100320000001A9F10109F4DC641C65E7092801005A
:1003300038B504468DF8000069460320ABBE204660
:1003400038BD000000240BE0214607A0FFF726FF80
:100350000649204600F00EF8054941F82400641CC7
:10036000402CF1DB00BFFEE725640A00F40300081F
:100370000400002010B420B440B4094A00F014F87E
:10038000054685FB05562046064A00F00DF8C0FBE1
:100390000056304640BC20BC10BCFFE77047000050
:1003A00074040008F40400084FF0000C04464FF0F9
:1003B000000004FB0CF505F03F05555F31F90C60BA
:1003C00005FB06F528440CF1010CBCF1400FF0D1FF
:1003D000FFE77047740500080000002004000000DB
:1003E000BC01000878050008040000200405000096
:1003F000CC010008FF0FF60FD90FA80F640F0E0FE6
:10040000A70E2F0EA80D130D720CC50B100B530A5F
:100410009009C908000837077006AD05F0043B04D1
:100420008E03ED025802D1015901F2009C005800E0
:1004300027000A0000000A00270058009C00F20074
:100440005901D1015802ED028E033B04F004AD05C1
:10045000700637070008C9089009530A100BC50B2E
:10046000720C130DA80D2F0EA70E0E0F640FA80F00
:10047000D90FF60FFF7F627F8A7D7D7A4276E37027
:100480006E6AF262825A34511D47573CFC3028256F
:10049000F9188C0C000074F307E7D8DA04CFA9C36D
:1004A000E3B8CCAE7EA50E9D92951D8FBE89838547
:1004B00076829E8000809E8076828385BE891D8F95
:1004C00092950E9D7EA5CCAEE3B8A9C304CFD8DA31
:1004D00007E774F300008C0CF9182825FC30573C12
:1004E0001D473451825AF2626E6AE37042767D7A19
:1004F0008A7D627F00008C0CF9182825FC30573C5F
:100500001D473451825AF2626E6AE37042767D7AF8
:100510008A7D627FFF7F627F8A7D7D7A4276E3708B
:100520006E6AF262825A34511D47573CFC302825CE
:10053000F9188C0C000074F307E7D8DA04CFA9C3CC
:10054000E3B8CCAE7EA50E9D92951D8FBE898385A6
:1005500076829E8000809E8076828385BE891D8FF4
:1005600092950E9D7EA5CCAEE3B8A9C304CFD8DA90
:0805700007E774F3000000002E
:04000005080000ED02
:00000001FF
