:020000040800F2
:100000000004002001010008250100082701000864
:10001000290100082B0100082D0100080000000044
:100020000000000000000000000000002F01000898
:10003000310100080000000033010008350100080C
:1000400037010008370100083701000837010008B0
:1000500037010008370100083701000837010008A0
:100060003701000837010008370100083701000890
:100070003701000837010008370100083701000880
:100080003701000837010008370100083701000870
:100090003701000837010008370100083701000860
:1000A0003701000837010008370100083701000850
:1000B0003701000837010008370100083701000840
:1000C0003701000837010008370100083701000830
:1000D0003701000837010008370100083701000820
:1000E000370100083701000837010008DFF80CD09D
:1000F00000F02CF80048004791010008000400209F
:100100000D488047DFF83400016841F4E0210160C8
:10011000BFF34F8FDFF82800DFF8281001600A488E
:1001200000477047FEE7FEE7FEE7FEE7FEE7FEE773
:10013000FEE7FEE7FEE7FEE72301000824ED00E00E
:100140000CED00E00003FA05ED000008064C074D39
:1001500006E0E06840F0010394E807009847103497
:10016000AC42F6D3FFF7C6FF2402000834020008B1
:1001700002E008C8121F08C1002AFAD17047704770
:10018000002001E001C1121F002AFBD170470000CE
:100190000348B0F90010012000F004F800BFFEE7AA
:1001A0003402000801B402B4094A00F015F803460D
:1001B00083FB032302BC01BC04B408B4054A00F06D
:1001C0000BF808BC04BCC0FB00231846FFE77047CF
:1001D000B40200083403000801B402B404B44FF0C0
:1001E000000C01E04DF804CD01BC02BC04BC08BC0D
:1001F00008B404B402B403FB0CF303F03F0331F979
:10020000131032F91C2001FB02F1084401B40CF177
:10021000010CBCF1400FE7D1FFE701BC02BC02BCFE
:1002200002BC7047B4030008000000200004000076
:1002300080010008FF0FF60FD90FA80F640F0E0FF3
:10024000A70E2F0EA80D130D720CC50B100B530A21
:100250009009C908000837077006AD05F0043B0493
:100260008E03ED025802D1015901F2009C005800A2
:1002700027000A0000000A00270058009C00F20036
:100280005901D1015802ED028E033B04F004AD0583
:10029000700637070008C9089009530A100BC50BF0
:1002A000720C130DA80D2F0EA70E0E0F640FA80FC2
:1002B000D90FF60FFF7F627F8A7D7D7A4276E370E9
:1002C0006E6AF262825A34511D47573CFC30282531
:1002D000F9188C0C000074F307E7D8DA04CFA9C32F
:1002E000E3B8CCAE7EA50E9D92951D8FBE89838509
:1002F00076829E8000809E8076828385BE891D8F57
:1003000092950E9D7EA5CCAEE3B8A9C304CFD8DAF2
:1003100007E774F300008C0CF9182825FC30573CD3
:100320001D473451825AF2626E6AE37042767D7ADA
:100330008A7D627F00008C0CF9182825FC30573C20
:100340001D473451825AF2626E6AE37042767D7ABA
:100350008A7D627FFF7F627F8A7D7D7A4276E3704D
:100360006E6AF262825A34511D47573CFC30282590
:10037000F9188C0C000074F307E7D8DA04CFA9C38E
:10038000E3B8CCAE7EA50E9D92951D8FBE89838568
:1003900076829E8000809E8076828385BE891D8FB6
:1003A00092950E9D7EA5CCAEE3B8A9C304CFD8DA52
:0403B00007E774F3F4
:04000005080000ED02
:00000001FF
